:020000040800F2
:1000000000100020B90700080508000805080008CE
:1000100000000000000000000000000000000000E0
:1000200000000000000000000000000005080008BB
:10003000000000000000000005080008010700089B
:10004000050800080508000805080008050800085C
:10005000050800080508000805080008050800084C
:10006000050800080508000805080008050800083C
:10007000050800080508000805080008050800082C
:100080000508000805080008000000000508000831
:10009000050800080508000805080008050800080C
:1000A00005080008050800080508000805080008FC
:1000B0000508000800000000050800080000000016
:1000C0005FF808F1002904D0044B5A6910435861C5
:1000D00003E0024B5A6982435A61704700100240A4
:1000E000002904D0044B9A691043986103E0024B45
:1000F0009A6982439A61704700100240F0B55F46EA
:1001000056464D464446F0B485B0804689460EA911
:1001100009880191121A49465E1A01230293002AA6
:1001200004DC131C591E8B415B4202930121039195
:10013000002E04DC331C591E8B415B420393D11704
:1001400053184B409A46F217B6185640B3469E4293
:1001500000DA1E1C331C013300931DD4002500243B
:10016000002740464946019A00F0E0F954445D44B6
:10017000B44205DDA41B02990B1C4344DBB2984634
:10018000B54205DDAD1B039A131C4B44DBB2994607
:100190000137009B9F42E4DD002005B03CBC904647
:1001A0009946A246AB46F0BD08B5B421490000F01F
:1001B00047FDB32907DC0B1C5A3B5A22511A5943FD
:1001C000074BC91804E00F39FF394943054BC918DB
:1001D000C801401880004018001300B208BDC04696
:1001E000A41F00005CE0FFFFF0B55F4656464D4699
:1001F0004446F0B489B012AC2488A24613AC2488DB
:100200000394161AF217B61856407608B6B2724220
:100210005D1AEB17ED185D406D08301880B283460B
:10022000491989B2049113B2994650465A30FFF7E2
:10023000BBFF041C4F464743BF122AB290465046AC
:10024000FFF7B2FF424642439212494641438912A8
:10025000434663439B12029336B2331C63439B12A3
:100260009C464643B6126D422DB2684380123B1A3B
:1002700098466C43A4120B19059363461B1A069308
:10028000341907945B46DDB2BF1AEF19FFB2049B25
:10029000DCB2029BC9186118C9B2894663469A1A32
:1002A000AA18D2B29246029A9619A619F6B2B34685
:1002B000039B0093381C5246331CFFF71FFF424636
:1002C000AB18DBB29846059BE618F6B2039A00928B
:1002D000381C49464246331CFFF710FF069BED18B9
:1002E000EDB2079AA418E4B2039B00935046594616
:1002F0002A1C231CFFF702FF039A00924046311C80
:100300002A1C231CFFF7FAFE002009B03CBC9046D3
:100310009946A246AB46F0BD82B0084B1A680192DE
:100320001A68019BD31A984206D90449C0460A6844
:10033000019BD31A8342F9D302B070471C000020FE
:1003400010B5041C002905D19020C005042100F03F
:10035000BDFB04E09020C005042100F0B9FB064875
:10036000211C00F087FA044C201C802100F084FA44
:100370000128F9D010BDC0460030014038B5051C39
:10038000002905D19020C005042100F09FFB04E066
:100390009020C005042100F09BFB290A0A4800F0C8
:1003A00069FA094C201C802100F066FA0128F9D076
:1003B000E9B2054800F05EFA034C201C802100F0F1
:1003C0005BFA0128F9D038BD00300140F8B5071CB0
:1003D0000D1C161C1C1C2A200121FFF7B1FF002058
:1003E0000021FFF7ADFF381C0021FFF7A9FF002017
:1003F0000021FFF7A5FF301C0021FFF7A1FF2B20F4
:100400000121FFF79DFF00200021FFF799FF203514
:10041000E8B20021FFF794FF00200021FFF790FFD2
:100420002034E0B20021FFF78BFF2C200121FFF7E1
:1004300087FFF8BDF0B557464E464546E0B4041C6C
:10044000002000217F227F23FFF7C0FF80239946F1
:100450009A468226F6002C4F4CE0B44232D008D89F
:10046000102C19D08023DB009C4225D0002C37D1E2
:100470000DE0BC421BD004D880231B029C4210D04C
:100480002EE0444523D0214B9C4225D028E000207B
:100490000021FFF773FF23E010200021FFF76EFF1C
:1004A0001EE0802000020021FFF768FF18E0381CE2
:1004B0000021FFF763FF13E08020C0000021FFF759
:1004C0005DFF0DE0301C0021FFF758FF08E04046BB
:1004D0000021FFF753FF03E00C480021FFF74EFF18
:1004E000013DADB2002DB8D14B46013B9BB29946C0
:1004F000002B04D0554684231B029846ADE71CBC54
:1005000090469946A246F0BD10800000108400007D
:1005100008B50248FFF78EFF08BDC04610840000F2
:1005200008B50021FFF72AFF08BDC04610B5141C0E
:10053000C2B2CBB2101C191CFFF748FF201CFFF7FA
:10054000EFFF10BD08B5002804D110200121FFF7EE
:10055000F7FE03E011200121FFF7F2FE7820FFF7FC
:10056000DBFE08BD08B5002804D120200121FFF7DB
:10057000E7FE03E021200121FFF7E2FE08BDC046AF
:1005800070B5802080020121FFF79CFD8020400192
:100590000121FFF7A5FD574C1F2323600123237181
:1005A0000026A671E67163719025ED05281C211CBB
:1005B00000F03AFAA023236002232371281C211C97
:1005C00000F032FA281C0721002200F083FA281CD0
:1005D0000521002200F07EFA47498E810E81CE80EF
:1005E000E023DB008B80CE8182235B004B80802365
:1005F0009B004B81414C201C00F006F9201C01217E
:1006000000F02CF9281C022100F062FA1420FFF7F8
:1006100083FE281C022100F059FA1420FFF77CFE0B
:10062000281C012100F054FA01200121FFF788FE67
:1006300011200121FFF784FE1420FFF76DFE262014
:100640000121FFF77DFE04200021FFF779FEC02085
:100650000121FFF775FE1F200021FFF771FEC12069
:100660000121FFF76DFE00200021FFF769FEC22087
:100670000121FFF765FE00200021FFF761FE072042
:100680000021FFF75DFEC3200121FFF759FE002086
:100690000021FFF755FE07200021FFF751FEC5207E
:1006A0000121FFF74DFE24200021FFF749FEC8205D
:1006B0000021FFF745FE38200121FFF741FE3A20D7
:1006C0000121FFF73DFE05200021FFF739FE36200E
:1006D0000121FFF735FE08200021FFF731FE292018
:1006E0000121FFF72DFE0020FFF73CFFFFF710FF71
:1006F00070BDC046340000202000002000300140C2
:1007000008B50D4A1378013303210B4013700B4ACF
:1007100012789A4205D99020C005102100F0D8F92E
:1007200004E09020C005102100F0D0F9024B5A6877
:1007300001325A6008BDC0461800002000000020A9
:1007400030B583B000F03EF900F09CF8174B186804
:10075000FA21890000F0D0F90202120A013A144B82
:100760005A60144A106A0002000AC02109060143B7
:10077000116200229A6007221A60FFF701FF012030
:10078000FFF7E0FE0020FFF755FE00248025ED0076
:10079000A3B200930195202020215A225A23FFF76B
:1007A00023FD01346420FFF7B7FDF1E714000020BA
:1007B00010E000E000ED00E00C488546002103E079
:1007C0000B4B5B58435004310A480B4B42189A427A
:1007D000F6D30A4A02E0002313600432084B9A421F
:1007E000F9D300F0EFF8FFF7ABFFFEE700100020B1
:1007F000580C0008000000201800002018000020FD
:100800003C000020FEE7000010B50388C1229201E1
:100810001A40CC890B882343CC8823430C8923437B
:100820004C8923438C892343134303808288094BDB
:1008300013408A88134383800B8A0382038804222F
:1008400093434A8813430380828B034B1340838373
:1008500010BDC046FFF0FFFFFFF7FFFF002904D0E7
:10086000028840231343038003E00388402293431C
:10087000038070470173704700890840431E984108
:10088000C0B2704710B51D4B5B680C221340042B9F
:1008900007D0082B09D0002B20D1194A194B1A6018
:1008A0001FE0174A174B1A601BE0144B5C685B682B
:1008B000A402240F0234D90304D4134B5C43114B1C
:1008C0001C600EE00D4BDB6A0F21194001310C4812
:1008D00000F012F944430B4B1C6002E0084A094B3C
:1008E0001A60064B5B681B061B0F084AD25CD2B22B
:1008F000044B1968D140196010BDC0460010024079
:1009000000127A001400002000093D0004000020BD
:1009100082B0002301930093274B19688022520272
:100920000A431A60191C80229202A020C0010B68A1
:1009300013400093019B01330193009B002B02D1D4
:10094000019B8342F3D11C4B1B689A0302D5012300
:10095000009301E000230093009B012B2AD1112278
:10096000164B1A60144B5A685A605A685A60596894
:10097000134A0A405A605968882252030A435A604F
:100980001968802252040A431A60191C80229204BA
:100990000B681342FCD0084B5A6803218A435A6003
:1009A000596802220A435A60191C0C224B681340F2
:1009B000082BFBD102B0704700100240002002401B
:1009C000FFFFC0FF08B5124B1968012211431960DF
:1009D000586810490140596018680F490140196072
:1009E00018680E490140196058680D490140596066
:1009F000D96A0F208143D962186B0A4901401963F3
:100A0000596B9143596300229A60FFF781FF08BD3B
:100A1000001002400CB8FF08FFFFF6FEFFFFFBFFCF
:100A2000FFFFC0FFACFEFFFFF0B54F464646C0B427
:100A30000022002301260327341C9C400D6825401A
:100A4000A5423BD10C79013C012C1DD884683D1C8A
:100A50009540AC43846085684C7994402C43846015
:100A60008488A0461C04240CA146351CA54044469D
:100A7000AC4384808488A0468D792C1C4D46AC40C4
:100A800045462C43A4B2848004683D1C9540AC4389
:100A9000046005680C7994402C430460C468A04647
:100AA0001D04ED0B3C1CAC40A44644466546AC43DB
:100AB000C460C568CC7994402C43C46001330232D1
:100AC000102BB9D10CBC90469946F0BD816170479E
:100AD0000185704710B507230B409B00C9088900AA
:100AE0004018016A0F249C40A1430162016A9A40A8
:100AF000131C0B43036210BD002934D001230022D4
:100B000010B488422CD301242407A14204D281428C
:100B100002D209011B01F8E7E400A14204D281429C
:100B200002D249005B00F8E7884201D3401A1A4319
:100B30004C08A04202D3001B5C0822438C08A04250
:100B400002D3001B9C082243CC08A04202D3001B06
:100B5000DC082243002803D01B0901D00909E3E780
:100B6000101C10BC7047002801D00020C04307B4FF
:100B7000024802A14018029003BDC046D9000000FF
:100B80000029F0D003B5FFF7B9FF0EBC4243891A24
:100B90001847C046002941D010B4041C4C40A4465C
:100BA00001230022002900D54942002800D54042F7
:100BB00088422CD301242407A14204D2814202D2CC
:100BC00009011B01F8E7E400A14204D2814202D2EC
:100BD00049005B00F8E7884201D3401A1A434C08E9
:100BE000A04202D3001B5C0822438C08A04202D31F
:100BF000001B9C082243CC08A04202D3001BDC0847
:100C00002243002803D01B0901D00909E3E7101C87
:100C10006446002C00D5404210BC7047002806D026
:100C200003DB0020C043400801E08020000607B439
:100C3000024802A14018029003BDC04619000000FE
:100C40000029EBD003B5FFF7A7FF0EBC4243891A7A
:080C50001847C0467047C0467A
:100C5800040000000000000000000000010203047E
:080C680006070809006CDC021C
:0400000508000000EF
:00000001FF
